:020000040800F2
:10000000980F002081020008815F0008515300080A
:10001000C1590008D919000815790008000000002E
:10002000000000000000000000000000CD6F00088C
:100030007D1E0008000000002164000871740008A3
:100040009B0200089B0200089B0200089B0200081C
:100050009B0200089B0200089B0200089B0200080C
:100060009B0200089B0200089B0200089B020008FC
:100070009B0200089B0200089B0200089B020008EC
:100080009B0200089B0200089B0200089B020008DC
:100090009B0200089B0200089B0200089B020008CC
:1000A0009B0200089B0200089B0200089B020008BC
:1000B000897400089B0200089B0200089B0200084C
:1000C0009B0200089B0200089B0200089B0200089C
:1000D0009B020008E5780008F1780008FD78000828
:1000E0009B0200089B0200089B0200089B0200087C
:1000F0009B0200089B0200089B0200089B0200086C
:100100009B0200089B0200089B0200089B0200085B
:10011000C5760008D17600089B0200089B02000803
:100120009B0200089B0200089B0200089B0200083B
:100130009B0200089B0200089B0200089B0200082B
:100140009B0200089B0200089B0200089B0200081B
:100150009B0200089B0200089B0200080979000826
:100160009B0200089B0200089B0200089B020008FB
:100170009B0200089B0200089B0200080000000090
:100180009B0200089B02000800F002F800F068F8EB
:1001900014A696E8000CB244B344DA4501D100F04D
:1001A0005FF8BAE80F000FA696E83000A5EB04054B
:1001B00004EB0607AAEB0704A7F101074FEA1515A0
:1001C0004FEA3414A4F10104AC4201D300F048F822
:1001D00013F0010F18BFFB1A43F0010300F001F800
:1001E000DBE71847D8A20000F8A20000103A24BFAD
:1001F00078C878C1FAD8520724BF30C830C144BF8C
:1002000004680C6070470000704700000023002461
:1002100000250026103A28BF78C1FBD8520728BF16
:1002200030C148BF0B60704766290AF0DE80642940
:1002300000F00881752900F00581732900F0C6845B
:10024000002070471FB50AF0BEF800F0C3FC0400A0
:100250000020002109F0EAFEE0601FBD10B510BDCE
:1002600000F0B8FD1146FFF7EDFF08F0C3FE00F007
:10027000D6FD03B4FFF7F2FF03BC00F017FE000049
:100280000948804709480047FEE7FEE7FEE7FEE72A
:10029000FEE7FEE7FEE7FEE7FEE7FEE70448054966
:1002A000054A064B70470000757400088901000874
:1002B00098090020980F0020980B0020980B002030
:1002C00053EA020C00F069802DE9F04B4FF0000674
:1002D000002B1FBFB3FA83F503FA05F424FA05F6E1
:1002E0005E4012BF1643B2FA82F502FA05F4C5F178
:1002F00020051EBF22FA05FC44EA0C04203556EA0C
:10030000044C4FEA144418BF641C4FF000084FF02F
:100310000009904271EB030C39D3002919BFB1FADF
:1003200081F701FA07F6B0FA80F700FA07F6C7F18D
:1003300020071EBF20FA07FC46EA0C062037B6FB52
:10034000F4FCA7EB0507103F07F01F0BCBF12006CD
:100350002CFA06F60CFA0BFB44BFB3460026202FFE
:10036000A4BF5E464FF0000B5BEA060C08BF4FF0DF
:10037000010B19EB0B0948EB0608ABFB027C06FBF3
:1003800002CC0BFB03CCC01B71EB0C01C1E70B468D
:10039000024641464846BDE8F08B13B5084318BFF6
:1003A0004FF0FF300146AFF30080BDE81C407047BE
:1003B0000FB41CB50C0007AA009007D04142A1421F
:1003C00002D32044401E01E04FF0FF30074B7B4436
:1003D00069460190069800F0CCFB0021002C01D06A
:1003E000009A11701CBC5DF814FB0000C7070000E8
:1003F00070B50C460546012A05D02878800600D540
:10040000EA69002302E0012305E05B1C934202D26B
:10041000E05C0028F9D1A869E618C01AA861286A2A
:10042000184428622846AFF3008004E0D5E9012192
:1004300014F8010B9047B442F8D32846AFF300807C
:1004400070BD00002DE9F0410646002410687529B2
:10045000314616A510D0AFF30080002802DA4042E2
:1004600013A507E031688A0701D512A502E0490704
:1004700004D511A5012401E0AFF3008000210A2278
:1004800006F1240709E0B0FBF2FCB0FBF2F302FB3B
:100490001C00303078541846491C0028F3D12346FC
:1004A0002A463046BDE8F04100F0F6B800000000F2
:1004B0002D0000002B000000200000002DE9F05F5F
:1004C000894604464FF0000ADFF874B1FB44C0F8D7
:1004D00020A02046E1688847002874D0252806D04F
:1004E000D4E901219047206A401C2062F1E70026F0
:1004F0005F462046E16888472028054607DB312D06
:1005000005D2781910F8200C08B10643F1E7B007BE
:1005100001D526F00406C4F81CA00027C4F818A0D2
:100520002A2D09D0284609F079FD38B304EB870855
:10053000303DC8F8185019E059F8041B204604EB68
:1005400087029161E1688847012F054618D1E0696B
:10055000002820DA26F020061DE0D8F8180000EB6D
:10056000800005EB40003038C8F818002046E168EC
:100570008847054609F052FD0028EED1012F0AD028
:100580002E2D08D12046E16888477F1C0546022FA2
:1005900046F02006C4DBA069002803DA404246F09A
:1005A0000106A061F00701D026F010066C2D0BD0DB
:1005B000682D09D04C2D39D06A2D35D0742D35D009
:1005C0007A2D33D016E038E0E1682F462046884780
:1005D000B842054609D16C2F26D04FF48060E168FF
:1005E000064320468847054604E06C2F1AD04FF496
:1005F000807006430DB3A5F14100192802D82035BB
:1006000046F400664A462946204626604E46FFF7D5
:100610000BFE80B101280BD0F61D26F0070000F17B
:10062000080956E74020E4E78020D8E70020D6E715
:1006300006F104094DE7284652E7206ABDE8F09F1D
:100640001E9F00004FF0000200B5134694469646E8
:10065000203922BFA0E80C50A0E80C50B1F12001D5
:10066000BFF4F7AF090728BFA0E80C5048BF0CC083
:100670005DF804EB890028BF40F8042B08BF7047E1
:1006800048BF20F8022B11F0804F18BF00F8012B53
:1006900070477047704770472DE9F0470D469946FF
:1006A0009246044600F124080168880604D5E069F2
:1006B00021F01001216000E00120A84201DD471B6C
:1006C00000E00027A1697A1902EB0900081AA0616D
:1006D0002078C00602D42046AFF30080002608E050
:1006E000D4E901211AF806009047206A401C761CC4
:1006F00020624E45F4DB2078C0060AD52046AFF3D1
:10070000008006E0D4E9012130209047206A401C97
:100710002062381EA7F10107F4DC07E0D4E90121CB
:1007200018F805009047206A401C2062281EA5F199
:100730000105F3DC2046AFF300802078000602D5E7
:100740000220BDE8F0870120FBE72DE9FF4F0C46B2
:100750001E464FF0FF378BB0D2E90001DDF8608014
:100760000A908A46C1F30A5505B93D46002108465C
:100770004FF00000BAF1000F00F4400005DA00EB82
:1007800080004FF4400101EA50004FEA9059B9F15E
:10079000010F00DDB9460A9850EA4A000ED044F62F
:1007A0001050A5F2FF3545432F14B8F1000F1ED0AD
:1007B0007542291E1EDDC9F100021CE0B8F1010FCF
:1007C0004FF0000001D0302103E0F24305E0215456
:1007D000401CB042FBDB30460022002121540B9923
:1007E000C1F80880C1E900200FB0BDE8F08FBD1B43
:1007F0006D1CDEE74A4600DA694206A800F074FA8A
:1008000006AB93E8070003AB83E8070050460A995C
:1008100009F023F88DE80700A0F500501F3800907C
:100820000398002D0ADD42F21F014A4608440023C6
:1008300003A90390684609F08DFA09E0A0F500507D
:100840004A461F38002303A90390684609F097FA27
:100850008DE807000004000C03D04FF0FF30410882
:1008600000E01046B8F1000F03D0002200921546B8
:100870001EE0751E05D400F0B1F9303262556D1ED0
:10088000F9D5B3460122084302D000227F1C04E0C0
:100890002078302801D100227F1E002A099784D0B9
:1008A0001DE0112D07DA00F099F9303262556D1C08
:1008B00050EA0102F5D1084302D00098C8B10EE019
:1008C0000021681E05E0235C625C63542254401ED4
:1008D000491C8142F7DBAB46A81B401E0990002053
:1008E00004F80B000B98099AC0F80880C0E9002BA7
:1008F0007AE711264FF0000857E72DE9F04F8846B8
:100900000446D21D22F0070191B0D1E90001CDE9E2
:100910000A0109F06BFB02460B98C00F01D02D2095
:1009200007E02068810701D52B2002E0202101EAA1
:10093000C000032A099001D0072A05DB034641467F
:10094000204600F091F90BE12078800601D5E0699E
:1009500000E00620B8F1650F814606D0B8F1660FB9
:1009600018D0B8F1670F70D131E00020B9F1110F44
:10097000009001DB112301E009F101030AAA01A99A
:100980000CA8FFF7E2FEDDE90C70002609F1010575
:10099000834647E001204B4600904FF000470AAAEB
:1009A00001A90CA8FFF7D1FEDDE90DB00C995D4659
:1009B000002610B909F101000D18B9EB050003D4A8
:1009C000C0F1FF3609F10105A5EB09002BE0B9F1F3
:1009D000010F01DA4FF001090020B9F1110F009069
:1009E000484601DD112300E003460AAA01A90CA82C
:1009F000FFF7ABFEDDE90C704D46002683462078FC
:100A000000070AD4AB4500DA5D4601A8012D04DDDC
:100A1000411911F8011C302907D04F4502DA17F1AE
:100A2000040F04DA012082460FE06D1EEEE7002F6E
:100A300002DCED1B3E4403E0781CA84200DD7D1C77
:100A4000B81B00F1010A4FF000472078000703D4DB
:100A5000AA4501DB4FF0FF3A0021B7F1004F0DF13D
:100A600043088DF8431024D002202B23002F01DAF5
:100A70007F422D230A21021EA0F1010000DC5FB19C
:100A800097FBF1FC97FBF1F201FB1C7C17460CF184
:100A9000300C08F801CDEEE7A8F1010003702188C1
:100AA000090501D5452100E06521A0F1010800F804
:100AB000011C09980FA9A1EB0807FF1D00B1012037
:100AC000411901EBEA70A1693844081A401EA0617F
:100AD0002078C00602D42046AFF30080099828B1E0
:100AE000D4E901219047206A401C20622078C0068A
:100AF00022D52046AFF300801EE0002E04DBB34574
:100B000002DD01A8805D00E03020D4E9012190479A
:100B1000206A401C2062761CAAF101005FEA000AEC
:100B20000AD100F057F8C0680168405CD4E901219F
:100B30009047206A401C2062281EA5F10105DCDCDC
:100B400007E0D4E9012118F8010B9047206A401C06
:100B50002062381EA7F10107F3DC2046AFF30080C6
:100B6000032011B041E6000001694A1C02610878C7
:100B7000704700B58FB0CDE90131002105910549DD
:100B80007944CDE9031011466846FFF797FC0FB092
:100B900000BD0000E5FFFFFFD1E900239A4202D229
:100BA000531C0B601070704710B5436913B1AFF35D
:100BB000008001E0FFF71CFC012010BD127800F15D
:100BC00024010A7000224A700122EDE711684FF0FB
:100BD000FF32E9E7004870475000002030B5B0F11F
:100BE0000A0271F100034FEA900E4EEA817EB0EBEB
:100BF0000E0061EB91014FEA101E4EEA017E10EBF0
:100C00000E0041EB11114FEA102E4EEA016E10EB6F
:100C10000E0041EB11214FEA104E4EEA014E10EB4F
:100C20000E0041EB1141401841F100014FEAD000A4
:100C300040EA41704FEAD1014FEA810444EA9074DE
:100C400010EB800544EB01046D1944EB0404521BC6
:100C5000A3414FF0000348BF0A3200D530BD401C0D
:100C600041F1000130BD00002DE9F0411F4604466E
:100C700003260168072A01F4006004DB08B116A509
:100C800005E016A503E008B115A500E015A521F0C3
:100C900010002060A069C01EA0610FB1401EA061BD
:100CA0002046AFF300804FB1D4E901213846904788
:100CB000206A401C2062C01C206206E0206AFAE71D
:100CC000D4E9012115F8010B9047761EF8D2204691
:100CD000AFF30080BDE8F0814E414E006E616E00C2
:100CE000494E4600696E66002DE9F047814616467A
:100CF0008AB0354878440DC88DE80D0032487844F4
:100D0000801C03AC0DC884E80D0041F69B300844FC
:100D1000372190FBF1F290FBF1F5A5F1800501FB85
:100D200012041B3C02D56442012000E00020DFF8E1
:100D300098A080460027FA44AAF1BE0A0EE0E00718
:100D40000AD03246684607EB470101230AEB8101CE
:100D500009F015F88DE8070064107F1C002CEED117
:100D6000194F7F44AE3F19E0E80715D007EB041098
:100D70000DF1180A90E80E008AE80E00C068F042F3
:100D800001D1981908903246012306A903A808F05A
:100D9000F6FF03AB83E807006D10641C002DE3D160
:100DA0004FF0010332466946B8F1000F03A802D0A4
:100DB00008F0D0FF01E008F0E2FFC9E90001C9F83E
:100DC00008200AB0BDE8F08784970000004870470B
:100DD000300000207546FFF7F9FFAE460500694672
:100DE000534620F00700854618B020B5FFF756FAA5
:100DF000BDE820404FF000064FF000074FF000081C
:100E00004FF0000BAC46ACE8C009ACE8C009ACE858
:100E1000C009ACE8C00921F007018D46704710B544
:100E20000446AFF300802046BDE81040FFF721BA2A
:100E300030B44FF0013C50F8042B51F8043BCCFA8D
:100E400052F4D51A20D1FCB950F8042B51F8043BC8
:100E5000CCFA52F4D51A17D1B4B950F8042B51F882
:100E6000043BCCFA52F4D51A0ED16CB950F8042BCD
:100E700051F8043BCCFA52F4D51A05D1002CDAD043
:100E800030BC4FF00000704729BAB1FA81F111F07F
:100E90001801D1F120008440F2D1CA40CB4012F0B9
:100EA000FF0213F0FF0330BCD01A7047014918202D
:100EB000ABBEFEE72600020070470000B0EEC00A9D
:100EC0007047000010B504465F2008F09DFB022C1F
:100ED00004D0012C06D107F083FF05E007F084FF62
:100EE00002E000BF07F084FF4FF4FA7007F040FF04
:100EF00007F066FF41F27C50C8214FF47A6207F098
:100F000015FF4FF4FA7007F033FF08F061F84FF463
:100F10007A7007F02DFF4FF62420CFF6FF70C8211E
:100F20004FF47A6207F002FF4FF47A7007F020FF67
:100F300008F032FC4FF4FA7007F01AFF40F2DC5070
:100F4000C8214FF47A6207F0F1FE4FF4FA70BDE861
:100F5000104007F00DBF000010B504464EF29C6033
:100F6000CFF6FF70C82141F2707207F0DFFE4FF438
:100F7000487007F0FDFE08F00FFC022C10D0012C89
:100F80002ED14FF4FA7007F0F3FE41F66410C82139
:100F900041F2707207F0CAFE07F022FF78200FE0DE
:100FA00007F022FF4FF4FA7007F0E2FE41F66410FA
:100FB000C82141F2707207F0B9FE07F015FF5F20FB
:100FC00008F022FB4FF4967007F0D2FE08F000F80C
:100FD0004FF47A7007F0CCFEBDE8104007F0F0BE89
:100FE00007F006FF4FF4FA7007F0C2FE41F66410F6
:100FF000C82141F2707207F099FE07F0F9FE5F20F8
:1010000008F002FB4FF4967007F0B2FE07F0E6FF1F
:101010004FF4FA6007F0ACFEBDE8104007F0D0BE18
:101020002DE9F04381B004464FF69E0904384CF692
:10103000385815460E46CFF6FF7910F1030FCFF65C
:10104000FF7805D20024301F10F1030F46D28CE048
:1010500001200127FFF736FF012C05D0032C0DD10D
:1010600040F26274002700E04C463846C8214FF435
:10107000FA6240F2627305F0D5F900E000249FEDBA
:10108000610A40F29C309FED601AC2F20000F0EE5F
:10109000400A00F0E3FF07F0A7FF0A2007F068FE10
:1010A000642008F0B1FA4046C8214FF47A6207F094
:1010B0003DFE4FF4FA6007F05BFE07F081FE4FF44F
:1010C0007A7007F055FE41F64C50C8214FF47A6211
:1010D00007F02CFE301F10F1030F46D30220FFF75C
:1010E000F1FE0027032E08BF40F26277012E08BFF1
:1010F0004F46A74202D127460BE000BF3B1B4FF0F3
:10110000C8014FF4FA6246BF5B420120002005F09F
:1011100089F99FED3C0A40F29C309FED3B1AC2F2E8
:101120000000F0EE400A00F099FF07F05DFF0A2092
:1011300007F01EFE642008F067FA4046C8214FF40D
:101140007A6207F0F3FD4FF4FA6007F011FE07F042
:1011500037FE4FF47A7007F00BFE41F64C50C82171
:101160004FF47A6207F0E2FD3C46281F10F1030FAE
:101170003CBF01B0BDE8F0830320FFF7A3FE0020D1
:10118000032D08BF40F26270012D08BF4846A042FF
:101190000AD0031B4FF0C8014FF4FA6246BF5B420E
:1011A0000120002005F03EF99FED160A40F29C3028
:1011B0009FED151AC2F20000F0EE400A00F04EFF5B
:1011C00007F012FF0A2007F0D3FD642008F01CFA94
:1011D0004046C8214FF47A6207F0A8FD4FF4FA6048
:1011E00007F0C6FD07F0ECFD4FF47A7007F0C0FD84
:1011F00041F64C50C8214FF47A6201B0BDE8F0438B
:1012000007F094BD00000000000034C32DE9F04356
:1012100081B004464FF69E0904384CF638581546FE
:101220000E46CFF6FF7910F1030FCFF6FF7805D207
:101230000024301F10F1030F46D28CE0012001275B
:10124000FFF740FE012C05D0032C0DD140F2627453
:10125000002700E04C463846C8214FF4FA6240F2BD
:10126000627305F0DFF800E000249FED610A40F2B0
:101270009C309FED601AC2F20000F0EE400A00F0D0
:10128000EDFE07F0B1FE0A2007F072FD642008F0C1
:10129000BBF94046C8214FF47A6207F047FD4FF48E
:1012A000FA6007F065FD07F08BFD4FF47A7007F0E8
:1012B0005FFD41F64C50C8214FF47A6207F036FDCD
:1012C000301F10F1030F46D30220FFF7FBFD00276C
:1012D000032E08BF40F26277012E08BF4F46A74297
:1012E00002D127460BE000BF3B1B4FF0C8014FF473
:1012F000FA6246BF5B420120002005F093F89FEDA3
:101300003C0A40F29C309FED3B1AC2F20000F0EE26
:10131000400A00F0A3FE07F067FE0A2007F028FD50
:10132000642008F071F94046C8214FF47A6207F052
:10133000FDFC4FF4FA6007F01BFD07F041FD4FF490
:101340007A7007F015FD41F64C50C8214FF47A62CF
:1013500007F0ECFC3C46281F10F1030F3CBF01B026
:10136000BDE8F0830320FFF7ADFD0020032D08BF8B
:1013700040F26270012D08BF4846A0420AD0031B0C
:101380004FF0C8014FF4FA6246BF5B4201200020D3
:1013900005F048F89FED160A40F29C309FED151AB3
:1013A000C2F20000F0EE400A00F058FE07F01CFE0A
:1013B0000A2007F0DDFC642008F026F94046C82129
:1013C0004FF47A6207F0B2FC4FF4FA6007F0D0FCF9
:1013D00007F0F6FC4FF47A7007F0CAFC41F64C5067
:1013E000C8214FF47A6201B0BDE8F04307F09EBC1B
:1013F000000000000000B4422DE9F04381B0044633
:101400004FF69E0904384EF2A84815460E46CFF610
:10141000FF7910F1030FCFF6FF7805D20024301FBB
:1014200010F1030F46D28CE001200127FFF74AFD9F
:10143000012C05D0032C0DD140F26274002700E08E
:101440004C463846C8214FF4FA6240F2627304F009
:10145000E9FF00E000249FED610A40F29C309FED1F
:10146000601AC2F20000F0EE400A00F0F7FD07F04B
:10147000BBFD0A2007F07CFC642008F0C5F840465C
:10148000C8214FF47A6207F051FC4FF4FA6007F07C
:101490006FFC07F095FC4FF47A7007F069FC40F29E
:1014A000DC50C8214FF47A6207F040FC301F10F185
:1014B000030F46D30220FFF705FD0027032E08BFC8
:1014C00040F26277012E08BF4F46A74202D127465D
:1014D0000BE000BF3B1B4FF0C8014FF4FA6246BF60
:1014E0005B420120002004F09DFF9FED3C0A40F28A
:1014F0009C309FED3B1AC2F20000F0EE400A00F073
:10150000ADFD07F071FD0A2007F032FC642008F001
:101510007BF84046C8214FF47A6207F007FC4FF48D
:10152000FA6007F025FC07F04BFC4FF47A7007F0E7
:101530001FFC40F2DC50C8214FF47A6207F0F6FB42
:101540003C46281F10F1030F3CBF01B0BDE8F083FB
:101550000320FFF7B7FC0020032D08BF40F26270A4
:10156000012D08BF4846A0420AD0031B4FF0C80116
:101570004FF4FA6246BF5B420120002004F052FFA4
:101580009FED160A40F29C309FED151AC2F2000042
:10159000F0EE400A00F062FD07F026FD0A2007F099
:1015A000E7FB642008F030F84046C8214FF47A6227
:1015B00007F0BCFB4FF4FA6007F0DAFB07F000FC21
:1015C0004FF47A7007F0D4FB40F2DC50C8214FF49E
:1015D0007A6201B0BDE8F04307F0A8BB000000004C
:1015E0000000B4422DE9F04F81B02DED048B82B0A4
:1015F00003284FF000068DF805008DF806108DF8D1
:101600000720A0F1040308BF40F26276012804BF5E
:101610004FF69E06CFF6FF7613F1030F38BF002674
:1016200003294FF00003A1F1040008BF40F26273E8
:10163000012904BF4FF69E03CFF6FF7310F1030F8D
:101640004FF000084FF69E0A38BF3346032A08BF02
:1016500040F2627840F29C3B9FED8B8A9FED8B9A23
:101660004EF2B429CFF6FF7A0027101F012A04BFDB
:101670004FF69E08CFF6FF7801260DF10504C2F261
:10168000000BCFF6FF7910F1030F38BF984630E01A
:1016900007F0AAFB4846C82141F2707207F046FBEA
:1016A00040F2DC5007F064FB08F076F84FF4FA7073
:1016B00007F05EFB43F2C820C82141F2707207F0C8
:1016C00035FB3C2007F0A0FF4FF4487007F050FBBB
:1016D00007F07EFC4FF47A7007F04AFB07F070FBCE
:1016E0004FF4FA7007F044FB00260137032F00F097
:1016F000AB80E05D011F11F1030FF6D303284FF01B
:10170000000508BF40F26275012808BF55464545EF
:101710000DD0A5EB0803C8214FF4FA62B3F1FF3FE7
:10172000CEBF00205B42012004F07CFEA846584654
:10173000B0EE480AF0EE480AB0EE491A00F08EFC0E
:1017400007F052FCFDB24EB14FF4967007F010FB5B
:10175000012D9DD045BB07F043FB9BE7012D27D012
:10176000002D47D107F03CFB4FF47A7007F000FBE7
:101770004CF63850CFF6FF70C82141F2707207F076
:10178000D5FA40F2DC5007F0F3FA08F005F84FF410
:10179000FA7007F0EDFA43F2C820C82141F27072E6
:1017A00007F0C4FA78208DE707F022FB72E700BF4C
:1017B00007F01AFB4FF47A7007F0DAFA4CF638505B
:1017C000CFF6FF70C82141F2707207F0AFFA40F215
:1017D000DC5007F0CDFA07F0DFFF4FF4FA7007F0A6
:1017E000C7FA43F2C820C82141F2707207F09EFA8E
:1017F0005F2067E707F0FCFA4FF47A7007F0B8FA59
:101800004CF63850CFF6FF70C82141F2707207F0E5
:101810008DFA40F2DC5007F0ABFA07F0BDFF4FF451
:10182000FA7007F0A5FA43F2C820C82141F270729D
:1018300007F07CFA5F2007F0E7FE4FF4487007F0EE
:1018400097FA07F0CBFB45E7B8F1000F08D0B8F1E5
:10185000010F0BDB0120C8214FF4FA6243460BE075
:1018600002B0BDEC048B01B0BDE8F08FC8F10003FD
:101870000020C8214FF4FA6202B0BDEC048B01B025
:10188000BDE8F04F04F0CEBD00000000000034C3FE
:10189000B0B51446021FD2B2FD2A0D4604D305F09E
:1018A00045FC0120FFF758FB281FC0B2FD2805D3D7
:1018B000284605F03BFC0220FFF74EFB201FC0B27C
:1018C000FD2838BFB0BD204605F030FC0320BDE840
:1018D000B040FFF741BB000040F28011C2F20001AE
:1018E0004860002008707047B0B52DED028B84B0C1
:1018F00040F28015C2F20005686818B310EE100AB5
:1019000008F0F0FC41EC180B07F00AFB806805F1C9
:10191000080402900DA2204640218DED008BFEF7B9
:1019200047FD01280EDB02463F28686828BF3F229A
:101930002146642304B0BDEC028BBDE8B04003F047
:101940006BBB00BF04B0BDEC028BB0BD416E676CD9
:10195000653A20252E316620456E633A2025640DB8
:101960000A00000070B586B040F28016C2F2000690
:101970007468ECB18446DDE90A0506F108048DE8D7
:101980000E0003900BA22046402163460495FEF70B
:101990000FFD01280CDB02463F28706828BF3F225C
:1019A0002146642306B0BDE8704003F035BB00BF9C
:1019B00006B070BD51523A202575257525752B2529
:1019C00075257525750D0A0040F28010C2F20000E1
:1019D0000021017070470000FEE7000080B586B06E
:1019E00000200590CDE90300CDE90100009043F609
:1019F0003000C4F20200016841F00101016000689A
:101A000001A900F001000090009840200190022000
:101A100003900020C4F2020001F0AEFC06B080BDCD
:101A200010B50024C4F202042046402101F074FDE8
:101A300001281CBF002010BD1E2001F089FC20469B
:101A4000402101F069FD0138B0FA80F0400910BD75
:101A500010B5044690F8D800002808BF10BD04F067
:101A600033F818B1022084F8DB0010BD05F04EFAFF
:101A70000028F8D104F19C0005F0E6F9D0B100216E
:101A800084F8D810012184F8DA1040F2BC21C2F2A7
:101A900000019FED7E0A91ED1C2AF0EE400AB0EEA7
:101AA000401AF0EE401A84F8DB00BDE8104000F068
:101AB0001FB900BF40F20010C2F2000090ED000B11
:101AC00051EC100B08F0C8FA94ED262A94ED273A51
:101AD00094ED250A94ED294A33EE422A01EE100ACC
:101AE00084ED282A30EE420A9FED692A34EE411A2D
:101AF000B4EE421AF1EE10FAC4F8A80084ED2B0AF5
:101B00001EDD9FED643A00BF31EE031AB4EE421AB7
:101B1000F1EE10FA14DD31EE031AB4EE421AF1EED2
:101B200010FA0DDD31EE031AB4EE421AF1EE10FA9E
:101B300006DD31EE031AB4EE421AF1EE10FAE3DCE0
:101B40009FED552AB4EE421AF1EE10FA1EDA9FED1F
:101B5000533A00BF31EE031AB4EE421AF1EE10FA16
:101B600014DA31EE031AB4EE421AF1EE10FA0DDA7D
:101B700031EE031AB4EE421AF1EE10FA06DA31EE43
:101B8000031AB4EE421AF1EE10FAE3DB84ED2C1ADC
:101B9000FFF794F994ED1E1AB4EE410AF1EE10FA33
:101BA0000ADC94ED2C0AFFF789F994ED1F1AB4EEC4
:101BB000410AF1EE10FA5FDD94ED250AD4ED280A12
:101BC000204604F02FFB84ED2E0A94ED2C0ADFED65
:101BD0002F0A04F1380004F025FB94ED2F2A94ED30
:101BE000301A84ED310AB4EE421AF1EE10FA0FDA2F
:101BF000B4F8900003EE100AB8EE433A31EE031A3F
:101C0000B4EE421AF1EE10FA84ED301A14DC17E04B
:101C1000B4EE421AF1EE10FA12DDB4F8900003EEC1
:101C2000100AB8EE433A31EE431AB4EE421AF1EE1E
:101C300010FA84ED301A03DAB0EE421A84ED302A3D
:101C400094ED2E2A40F2BC2032EE414AC2F200004E
:101C500034EE403A32EE011A90ED1C2A70EE010A81
:101C600031EE401A70EE041AB0EE430A00F040F86C
:101C7000002084F8DB0010BD204600F011F80120A0
:101C800084F8D900002084F8DB0010BD00000000BB
:101C9000000034430000B4C3000034C30000B44368
:101CA000B0B500250021044680F8D85004F044FB6C
:101CB00004F13800002104F03FFB40F2BC20C2F2E6
:101CC00000009FED0A0A90ED1C2AC4E92E55C4F8C5
:101CD000C050F0EE400AB0EE401AF0EE401AC4F8E0
:101CE000C450BDE8B04000F003B800BF00000000E1
:101CF0002DE9F0412DED0C8B82B0B1EE42CAB0EE71
:101D0000419AB0EE60BAF0EE4C0AB0EE421AB0EE74
:101D1000428AB0EE61AA03F037FDB0EE40DAB0EED1
:101D20004B0AF0EE4C0AB0EE481A03F02DFDB0EE6F
:101D300040BAB0EE490AF0EE4C0AB0EE481A03F091
:101D400023FDB0EE409AB0EE4A0AF0EE4C0AB0EE37
:101D5000481A03F019FD40F21C07C2F20007B0EE6A
:101D6000408AB5EE40DA00253E88B0EE4D0A0024E8
:101D7000F1EE10FAB8BF0125FFF7A0F8BDEEC00ADA
:101D800010EE103A4FF00108012029463246CDF8F6
:101D9000008003F08DFF012006F0EAFFB5EE40BAA7
:101DA00000253E88B0EE4B0AF1EE10FAA8BF0125DF
:101DB000FFF784F8BDEEC00A10EE103A0220294663
:101DC0003246CDF8008003F073FF012006F0D0FF0B
:101DD000B5EE409A00253E88B0EE490AF1EE10FAC1
:101DE000B8BF0125FFF76AF8BDEEC00A10EE103A41
:101DF000032029463246CDF8008003F059FF012028
:101E000006F0B6FFB5EE408AF1EE10FAA8BF012445
:101E10003D88B0EE480AFFF751F8BDEEC00A10EE5B
:101E2000103A042021462A46CDF8008003F040FFF6
:101E3000012006F09DFF03F0DDFF012002B0BDECA4
:101E40000C8BBDE8F04106F093BF00004EF6FC504D
:101E5000CEF20000016841F08071016041F20000A3
:101E6000CEF2000000214160016841F001010160F3
:101E70000068012121EA000070470000704700005F
:101E800010B50446002084F81E0184F82001204685
:101E9000002104F051FA04F13800002104F04CFA5A
:101EA00004F170000021BDE8104004F045BA0000C4
:101EB00080B501200121012203F0CAFD0A2006F0AD
:101EC00057FF03200121012203F0C2FD0A2006F082
:101ED0004FFF02200121012203F0BAFD0A2006F083
:101EE00047FF04200121012203F0B2FD0A2006F081
:101EF0003FFF05200121012203F0AAFD0A2006F080
:101F000037FF03F077FF0A20BDE8804006F030BFBE
:101F100040F2DC10C2F20000C16800224A620121D6
:101F20000170C0E901227047F0B58BB0002643F67E
:101F300030000A96CDE90866CDE906660196C4F23E
:101F40000200016840F6004441F0080101600168A8
:101F5000C4F2020401F0080101910199019601699E
:101F600006AD41F0040101610069294600F004005A
:101F7000019001984FF4805006900220CDE90706A9
:101F8000CDE90900204601F0F7F94FF40050CDE902
:101F90000606012720462946CDE908760A9601F073
:101FA000EBF940F2DC15C2F20005A4F501302C4635
:101FB00044F80C0F4FF6FF70C5E906062046C5E948
:101FC00004666E6201F0D8FE072001905020CDE932
:101FD000020601A92046CDE9046602F061F92068F5
:101FE000466220462F70C5E9016601F015FF0BB06F
:101FF000F0BD000010B540F60040C4F202004FF4FE
:10200000005101F089FA40F2DC1C4FF0FF31C2F2BE
:10201000000C01EB4000DCE902E38CF80000596A97
:1020200040B201FB00F201FB00E000245C62CCE95D
:10203000012010BDEFF3108072B600BFFEE7000074
:1020400010B5044600F0F0F902E000BF07F00CF90B
:1020500094F81F01002818BF10BDF7E710B504461B
:1020600000F04CFB02E000BF07F0FEF894F81F01FF
:10207000002818BF10BDF7E770B584B0044690F88B
:102080001E0128B103F020FDE0B104B070BD00BF17
:1020900094F820010028F8D003F016FD0028F4D1B0
:1020A0009FEDDA0A94ED2D2AF0EE400AB0EE401AC8
:1020B000F0EE401AFFF71CFE002084F8200104B067
:1020C00070BD00BF04F022FF0028DED103A901206B
:1020D0000022002503F0B4FDF0B9039840F2BC26BD
:1020E000C2F20006C6F8C80002A90320002203F0CD
:1020F000A7FD88B9029801A9C6F8CC0002200022E9
:1021000003F09EFD40B901986946C6F8D00004204E
:10211000002203F095FDF8B12046002184F81E51FD
:1021200084F8205104F008F904F13800002104F08B
:1021300003F904F17000002104F0FEF89FEDB30AEA
:1021400094ED2D2AF0EE400AB0EE401AF0EE401A5F
:10215000FFF7CEFD04B070BD0399D4F8EC200098D1
:10216000891A00EE101A40F26411C2F2000191EDDA
:10217000031A0199D4F8F420B8EEC00A891A02EEC5
:10218000101A0299D4F8F020B8EEC22A21EE000A03
:1021900021EE022A891A30EE420A02EE101AD4F811
:1021A000F810B8EEC22AC6F8D40021EE022A401A6E
:1021B00030EE020A02EE100AB8EEC22A21EE021A2E
:1021C00030EE410AB5EE001A9FED912A20EE010A89
:1021D00094ED351A20EE020A84ED390A31EE000A38
:1021E00084ED370A06F09CFE8068D4F8001194ED67
:1021F0003F1A401A00EE100AB8EEC00A21EE000A9B
:102200009FED841A94ED362A20EE010A84ED3A0AF5
:1022100032EE000A40F2001084ED380AC2F20000EB
:1022200090ED000B51EC100B07F016FF94ED342AE3
:1022300001EE100A9FED780A32EE411AB4EE401A10
:10224000F1EE10FAC4F808011DDD9FED742A31EE9D
:10225000021AB4EE401AF1EE10FA14DD31EE021A51
:10226000B4EE401AF1EE10FA0DDD31EE021AB4EEC2
:10227000401AF1EE10FA06DD31EE021AB4EE401A01
:10228000F1EE10FAE3DC9FED660AB4EE401AF1EECF
:1022900010FA1DDA9FED632A31EE021AB4EE401AED
:1022A000F1EE10FA14DA31EE021AB4EE401AF1EE41
:1022B00010FA0DDA31EE021AB4EE401AF1EE10FA0D
:1022C00006DA31EE021AB4EE401AF1EE10FAE3DB50
:1022D00094ED320AD4ED390A204684ED431A03F016
:1022E000A1FF84ED440A94ED330AD4ED3A0A04F1D7
:1022F000380003F097FF84ED450A94ED430ADFEDC3
:10230000430A04F1700003F08DFF94ED2A1A84ED66
:10231000460A94ED440AF1EE410A03F035FA94EDD1
:102320002B1A84ED440A94ED450AF1EE410A03F0BC
:102330002BFA94ED2C1A84ED450A94ED460AF1EE41
:10234000410A03F021FA94ED321A94ED392A84ED12
:10235000460A31EE420AFEF7B1FD94ED2E1AB4EEB4
:10236000410AF1EE10FA1DDA94ED330A94ED3A1AAF
:1023700030EE410AFEF7A2FD94ED2F1AB4EE410AA9
:10238000F1EE10FA0EDA94ED430AFEF797FD94EDA4
:10239000301AB4EE410AF1EE10FA03DAB4F81C0177
:1023A000013000E00020B4F8C410A4F81C0180B291
:1023B000884217D294ED441A94ED453A94ED464A7A
:1023C00094ED2D2A31EE435A31EE031A35EE440ACC
:1023D00071EE040A31EE441A75EE041AFFF788FC18
:1023E00004B070BD9FED090A94ED2D2AF0EE400A6D
:1023F000B0EE401AF0EE401AFFF77AFC0120A4F884
:102400001F012046FFF73CFD04B070BD0000000036
:102410006666863F295C7FC0000034430000B4C379
:10242000000034C30000B443F0B581B02DED068B3D
:1024300084B0B0EE418AB0EE609AB0EE40AA044695
:1024400003F0A0FD40F2BC25C2F20005002728469B
:10245000002185F8D87003F06FFF05F138000021E6
:1024600003F06AFF40F2C460C2F200000021C5E937
:102470002E77C5E9307780F8667080F8687003F0D1
:102480005BFF40F23070C2F20000002180F86A70F9
:1024900080F86C7003F050FF40F68806C2F2000628
:1024A0003046002186F8047186F8067103F044FF77
:1024B00006F13800002103F03FFF06F17000002113
:1024C00003F03AFF05F0D2FDFFF722FD04F01EFDF8
:1024D00003A90120002203F0B3FBF0B9039802A97D
:1024E000C5F8C8000320002203F0AAFBA8B902988F
:1024F00001A9C5F8CC000220002203F0A1FB60B9BD
:1025000001986946C5F8D0000420002203F098FB2A
:102510000099002808BFC5F8D4100398DDE901230D
:10252000C4F80071C4E93B0340F20010C4E93D2146
:10253000C4E93577C4E93777C4E9397784ED32AA3D
:1025400084ED339AC2F2000090ED000B51EC100BB9
:1025500007F082FD02EE100A9FED640A38EE023A9F
:10256000B4EE403AF1EE10FAC4F804011EDD9FED1E
:10257000601A00BF33EE013AB4EE403AF1EE10FAC1
:1025800014DD33EE013AB4EE403AF1EE10FA0DDD0F
:1025900033EE013AB4EE403AF1EE10FA06DD33EED6
:1025A000013AB4EE403AF1EE10FAE3DC9FED511A35
:1025B000B4EE413AF1EE10FA1EDA9FED4F4A00BF39
:1025C00033EE043AB4EE413AF1EE10FA14DA33EE97
:1025D000043AB4EE413AF1EE10FA0DDA33EE043A71
:1025E000B4EE413AF1EE10FA06DA33EE043AB4EE04
:1025F000413AF1EE10FAE3DB84ED343A33EE423A3D
:10260000B4EE403AF1EE10FA84ED422A1EDD9FED61
:10261000382A00BF33EE023AB4EE403AF1EE10FA37
:1026200014DD33EE023AB4EE403AF1EE10FA0DDD6D
:1026300033EE023AB4EE403AF1EE10FA06DD33EE34
:10264000023AB4EE403AF1EE10FAE3DCB4EE413A6D
:10265000F1EE10FA1EDA9FED280A00BF33EE003AC1
:10266000B4EE413AF1EE10FA14DA33EE003AB4EE79
:10267000413AF1EE10FA0DDA33EE003AB4EE413A97
:10268000F1EE10FA06DA33EE003AB4EE413AF1EE2A
:1026900010FAE3DB0020A4F81F01C4E94400C4F8E9
:1026A0001801A4F81C01204684ED433A03F038FEDB
:1026B00004F13805284603F033FE04F17006304675
:1026C00003F02EFE20460121012703F035FE2846A7
:1026D000012103F031FE3046012103F02DFE84F884
:1026E0001E7104B0BDEC068B01B0F0BD0000344398
:1026F0000000B4C3000034C30000B443F0B581B09F
:102700002DED068B84B0B0EE418AB0EE609AB0EE4B
:1027100040AA044603F036FC40F2BC25C2F2000594
:1027200000272846002185F8D87003F005FE05F142
:102730003800002103F000FE40F2C460C2F2000045
:102740000021C5E92E77C5E9307780F8667080F8FA
:10275000687003F0F1FD40F23070C2F20000002119
:1027600080F86A7080F86C7003F0E6FD40F6880629
:10277000C2F200063046002186F8047186F8067120
:1027800003F0DAFD06F13800002103F0D5FD06F173
:102790007000002103F0D0FD05F068FCFFF7B8FBE6
:1027A00004F0B4FB03A90120002203F049FAF0B9B8
:1027B000039802A9C5F8C8000320002203F040FADC
:1027C000A8B9029801A9C5F8CC000220002203F0A4
:1027D00037FA60B901986946C5F8D0000420002294
:1027E00003F02EFA0099002808BFC5F8D41003980A
:1027F000DDE90123C4F80071C4E93B0340F2001095
:10280000C4E93D21C4E93577C4E93777C4E93977AC
:1028100084ED32AA84ED339AC2F2000090ED000BF1
:1028200051EC100B07F018FC9FED640AC4F804018A
:10283000B4EE408AF1EE10FA1EDD9FED611A00BF82
:1028400038EE018AB4EE408AF1EE10FA14DD38EE6B
:10285000018AB4EE408AF1EE10FA0DDD38EE018AFD
:10286000B4EE408AF1EE10FA06DD38EE018AB4EEDD
:10287000408AF1EE10FAE3DC9FED521A03EE100AE3
:10288000B4EE418AF1EE10FA1EDA9FED4F2A00BF36
:1028900038EE028AB4EE418AF1EE10FA14DA38EE1C
:1028A000028AB4EE418AF1EE10FA0DDA38EE028AAD
:1028B000B4EE418AF1EE10FA06DA38EE028AB4EE8E
:1028C000418AF1EE10FAE3DB38EE432AB4EE402AF7
:1028D000F1EE10FA84ED348A84ED423A1EDD9FED6C
:1028E000383A00BF32EE032AB4EE402AF1EE10FA75
:1028F00014DD32EE032AB4EE402AF1EE10FA0DDDBB
:1029000032EE032AB4EE402AF1EE10FA06DD32EE82
:10291000032AB4EE402AF1EE10FAE3DCB4EE412AC9
:10292000F1EE10FA1EDA9FED280A00BF32EE002AFF
:10293000B4EE412AF1EE10FA14DA32EE002AB4EEC7
:10294000412AF1EE10FA0DDA32EE002AB4EE412AF5
:10295000F1EE10FA06DA32EE002AB4EE412AF1EE78
:1029600010FAE3DB0020A4F81F01C4E94400C4F816
:102970001801A4F81C01204684ED432A03F0D0FC82
:1029800004F13805284603F0CBFC04F1700630460C
:1029900003F0C6FC20460121012703F0CDFC2846A8
:1029A000012103F0C9FC3046012103F0C5FC84F885
:1029B0001E7104B0BDEC068B01B0F0BD00003443C5
:1029C0000000B4C3000034C30000B44340F27810E8
:1029D000C2F200004078704780B5FEF7FFFF40F27A
:1029E0003C60C2F20000FEF777FF40F2F850C2F2FE
:1029F000000004F0EDFA02F085FE02F0BBFE40F2AA
:102A00007810C2F200004FF48071018080BD000098
:102A100080B586B000208DF817008DF816008DF86F
:102A200015008DF814008DF813008DF812008DF844
:102A3000110040F23C60C2F2000004F0E5F808B179
:102A400006B080BD0DF112000DF113010DF1110C56
:102A5000CDE900100DF117000DF116010DF1150271
:102A600005ABCDF808C004F093F90028E8D19DF833
:102A7000170040F27811C2F2000188709DF816002C
:102A8000C8709DF8150008719DF8140048719DF8F4
:102A9000130088719DF81200C8719DF81100002084
:102AA00006B080BDB0B52DED068B82B040F2781532
:102AB000C2F200056978312900F2DC830120DFE8E9
:102AC00011F0D8033300A901BF0145015702830269
:102AD000C501B7028701A10225016D017502D5006C
:102AE000AD01C10015028D021B033B026702FF020C
:102AF0003D0393018F0175038B004D036303CD02EA
:102B0000FF01E102FD0099006B0081005500710397
:102B10000D0351012B021F033F00CB00FB029D035D
:102B20005D000B013B0100BF02F024FEFEF778FFC1
:102B3000002800F09F8302F013FE022099E300BFFB
:102B40000320C8214FF4FA624FF4966303F06AFC45
:102B50009FEDB90A40F29C309FEDB81AC2F2000016
:102B6000F0EE400AFFF77AFA2C2082E36879A9791F
:102B7000EA79FEF737FD26207BE300BF9FEDAE0A22
:102B800040F29C30C2F20000F0EE400AB0EE401A73
:102B9000FFF764FA30206CE30320C8214FF4FA6297
:102BA0004FF4C87303F03EFC9FEDA30A40F29C3043
:102BB0009FEDE01AC2F20000F0EE400AFFF74EFA75
:102BC000242056E304F0A8FE6879A979EA79FEF793
:102BD00027FA25204DE300BF9FED970A40F29C3075
:102BE000C2F20000F0EE400AB0EE401AFFF736FAEB
:102BF0001C203EE340F29C349FEDDC8A9FED8E9AD0
:102C00009FED8EAAC2F200042046B0EE480AF0EE14
:102C1000490AB0EE4A1AFFF721FA2046B0EE480AF8
:102C2000F0EE490AB0EE4A1AFFF718FA2046B0EE65
:102C3000490AF0EE490AB0EE4A1AFFF70FFA2720C8
:102C400017E300BF0320C8214FF4FA624FF4C873A2
:102C500003F0E8FB11200CE304F0B6FE6879A979D3
:102C6000EA79FEF7C9FB2D2003E300BF40F29C3454
:102C70009FEDBE8A9FED709A9FED70AAC2F200048C
:102C80002046B0EE480AF0EE490AB0EE4A1AFFF7C5
:102C9000E5F92046B0EE480AF0EE490AB0EE4A1ACD
:102CA000FFF7DCF92046B0EE490AF0EE490AB0EE33
:102CB0004A1AFFF7D3F90F20DBE200BF9FED5E0A4F
:102CC00040F29C309FED5D1AC2F20000F0EE400A27
:102CD000FFF7C4F92220CCE240F29C349FED568AE3
:102CE000C2F200049FEDE60A2046F0EE480AB0EE7C
:102CF000481AFFF7B3F92046B0EE480AF0EE480A4A
:102D0000B0EE481AFFF7AAF93120B2E296204FF44C
:102D1000FA6140F28E3203F055FC9FED470A40F213
:102D20009C30C2F20000F0EE400AB0EE401AFFF70D
:102D300095F90C209DE200BFC8204FF4FA6141F2E2
:102D40005C2203F051FE322093E200BF4FF47A7010
:102D5000C82141F2883205F067FF002840F08881E1
:102D6000052086E240F29C349FED338A9FED719AF4
:102D7000C2F200049FEDE10A2046F0EE480AB0EEF0
:102D8000491AFFF76BF92046B0EE480AF0EE480A00
:102D9000B0EE491AFFF762F929206AE240F29C344A
:102DA0009FED258AC2F200049FEDE30A2046F0EE73
:102DB000480AB0EE481AFFF751F92046B0EE480A2B
:102DC000F0EE480AB0EE481AFFF748F90D2050E23D
:102DD000A878E9782A79FEF75BFD0B2049E200BF6D
:102DE00006F0F6F81A2044E204F096FDA878E97897
:102DF0002A79FEF70BFA9FED100A40F29C309FED06
:102E00000F1AC2F20000F0EE400AFFF727F919206E
:102E10002FE200BFFFF77CF803202AE240F29C304B
:102E20009FEDE10ADFED040A9FED421AC2F20000B5
:102E3000FFF714F910201CE2000000000000B4426B
:102E4000502006F0E1FB042013E200BF642005F0EF
:102E50008FFF0020C8214FF4FA6242F2BB0303F057
:102E6000E1FA1FED0B0A40F29C30C2F20000F0EED6
:102E7000400AB0EE401AFFF7F1F8FFF7C9FD00284D
:102E800040F0F68040F23C60C2F2000004F00EF91F
:102E9000A878E9782A796B7995F806C0EC79CDE9BC
:102EA00000C404F09BF8A878E9782A796B7995F842
:102EB00006C0EC79CDE900C4FEF754FD0820D8E146
:102EC0000220C8214FF4FA6240F28E3303F0AAFACE
:102ED0009FEDEA0A40F29C30C2F20000F0EE400A98
:102EE000B0EE401AFFF7BAF82020C2E104F014FD5A
:102EF0009FEDE20A40F29C309FEDE31AC2F200001F
:102F0000F0EE400AFFF7AAF8A878E9782A79FEF7E8
:102F100087F81220ADE100BF9FEDD80A40F29C3047
:102F20009FEDD71AC2F20000F0EE400AFFF796F8C4
:102F30002A209EE1000034C340F29C349FEDCF8AEA
:102F4000C2F200049FEDD40A2046F0EE480AB0EE2B
:102F5000481AFFF775F89FEDCC1A2046B0EE480AE4
:102F6000F0EE480AFFF77AF8152082E1004053445A
:102F70004FF60C60CFF6FF70C8214FF47A7205F05F
:102F8000D5FE4FF47A7000F0E3F9062071E100BF3E
:102F90009FEDBA0A40F29C309FEDB91AC2F20000D0
:102FA000F0EE400AFFF75AF8162062E19FEDB30AEF
:102FB00040F29C309FEDB21AC2F20000F0EE400ADF
:102FC000FFF74CF80E2054E1C8204FF4FA614FF49B
:102FD0007A6203F091FD07204BE100BFA878E97801
:102FE0002A79FEF7FFFA9FEDA50A40F29C309FED8B
:102FF000A61AC2F20000F0EE400AFFF72FF81320E5
:1030000037E100BFC8204FF4FA614FF4FA7203F0C1
:1030100089FB9FED9A0A40F29C30C2F20000F0EE6C
:10302000400AB0EE401AFFF719F8092021E100BF6D
:1030300096204FF4FA6141F6F65203F023FC9FED1F
:103040008F0A40F29C30C2F20000F0EE400AB0EE6F
:10305000401AFFF703F80A200BE100BF4FF47A7023
:10306000C82141F2883205F0DFFD002800F0EE8033
:1030700028704FF47F0005F0F1FC3320F9E000BF29
:103080000000D7C440F29C349FED7C8AC2F2000459
:103090009FED7F0A2046F0EE480AB0EE481AFEF790
:1030A000DDFF2046B0EE480AF0EE480AB0EE481ABE
:1030B000FEF7D4FF2120DCE005F08AFF2E20D8E0C7
:1030C00040F29C309FED730ADFED6C0A9FED6C1AA5
:1030D000C2F20000FEF7C2FF1720CAE040F29C30A7
:1030E0009FED6A0ADFED650A9FED671AC2F20000E4
:1030F000FEF7B4FF2320BCE01420BAE000803BC4FC
:1031000040F29C349FED5D8A9FED5D9AC2F200040F
:103110009FED5C0A2046F0EE480AB0EE491AFEF731
:103120009DFF2046B0EE480AF0EE480AB0EE491A7C
:10313000FEF794FF2B209CE00000CDC30320C821A4
:103140004FF4FA624FF42F7303F06CF9002014214E
:10315000002205F08BFC18208BE000BFC8214FF443
:10316000FA6241F63A2303F05DF99FED440A40F21A
:103170009C30C2F20000F0EE400AB0EE401AFEF7BA
:103180006DFF1D2075E000BF9FED3C0A40F29C30B2
:10319000C2F20000F0EE400AB0EE401AFEF75EFF09
:1031A0001E2066E0282064E0000020C228794FF647
:1031B0001C51C0F10100CFF6FF71982210FB0210E4
:1031C00040F29C349FED2D8A9FED2D9A00EE100A5F
:1031D000C2F20004B8EEC00A2046F0EE480AB0EE93
:1031E000491AFEF73BFF2046B0EE480AF0EE480AC7
:1031F000B0EE491AFEF732FF1B203AE0E8794FF6AD
:103200003251C0F10100CFF6FF71982210FB02107D
:1032100040F29C349FED198A9FED199A00EE100A36
:10322000C2F20004B8EEC00A2046F0EE480AB0EE42
:10323000491AFEF713FF2046B0EE480AF0EE480A9E
:10324000B0EE491AFEF70AFF2F2012E04FF60C608D
:10325000CFF6FF70C8214FF47A7205F067FD4FF486
:103260007A7000F075F86879A979EA79FEF710FBB1
:103270001F20687002B0BDEC068BB0BD00000000DE
:103280000000B442000061C4000034C3000020C24A
:103290000000A5C3000066C4000043C470B5866D7D
:1032A000044600F045F994F83510022928D1054666
:1032B0002068216C026822F016020260426922F046
:1032C0008002426109B9A16C19B1016821F00801BD
:1032D0000160016821F00101016000BF2068006801
:1032E000C00715D000F024F9401B0628F6D3202093
:1032F0006065032084F83500002184F8341070BD27
:10330000802060650120002184F8341070BD00BF6A
:10331000E06D3F2101FA00F0B060012084F8350033
:103320000020002184F8341070BD000090F83510A2
:10333000022909D1052180F835100068016821F0C3
:103340000101016000207047802141650120704724
:10335000B0B5044600F0ECF8054640F21000C2F2A9
:1033600000000078611C18BF044400BF00F0E0F8C2
:10337000401BA042FAD3B0BD2DE9F04F83B000F15D
:10338000200200F13E4741F60045009207F1FF7729
:10339000C4F2020508224FEAB726A84208BF072256
:1033A00000254FF000084FF00009072E38BF4FEA04
:1033B000B72201920AE000BF09F1010908F10208F1
:1033C000B9F1100F05F1040500F0A2800F68012289
:1033D00002FA09FE17EA0E0AEED0D1F804C0032261
:1033E0000CF003077E1E02FA08F4012E6FEA040BAC
:1033F00012D88468CE6804EA0B0406FA08F634434F
:103400008460446824EA0E06CCF3001404FA09F43C
:103410002643466004E000BF032F01D103271EE0CE
:10342000C6688C6806EA0B0604FA08F42643022FE5
:10343000C66014D16FF00302009E02EA590756F8E5
:1034400007C005F01C040F220B69A2402CEA0202FF
:10345000A3401A43F251D1F804C00CF003070268EC
:1034600007FA08F302EA0B021A431CF4403F026019
:10347000A2D0002243F644030292C4F202031A6867
:1034800043F6004442F480421A601A68C4F2010410
:1034900002F480420292029A29F003024FF6084C8D
:1034A0002244CFF6FF7C52F80C3005F00C070F26B3
:1034B000BE40B343019E06FA07F73B4342F80C3087
:1034C000A2684B6842EA0A0743F60C4CDE0258BF7A
:1034D00022EA0A07A760C4F2010CDCF800209E0271
:1034E00042EA0A0758BF22EA0A07CCF8007062686D
:1034F0009E0342EA0A0758BF22EA0A076760226869
:10350000DB0342EA0A0758BF22EA0A07276053E7AB
:1035100003B0BDE8F08F00000069084018BF01202B
:1035200070470000002A08BF09048161704700004D
:1035300040F68400C2F200000068704740F21000BC
:1035400040F68401C2F20000C2F2000100780A686D
:10355000104408607047000080B543F60040C4F294
:103560000200016841F400710160016841F480616A
:103570000160016841F480710160032000F086F869
:103580000F2000F005F800F027F8002080BD0000B3
:1035900070B540F21006C2F2000640F2180132780F
:1035A000C2F200014FF47A730968B3FBF2F20446E9
:1035B000B1FBF2F1084600F067FB0F2C4FF001055C
:1035C00008D838B94FF0FF3021460022002500F01E
:1035D00031F87460284670BD82B0002043F6400187
:1035E0000190C4F202014A6842F480424A604A688B
:1035F00002F480420192019A0090086840F08050E5
:103600000860086800F080500090009802B0704791
:10361000002848BF704700F01F01012202FA01F1A3
:103620001C2202EAD0004EF20012CEF200028150BB
:103630007047000010B54EF60C5CCEF2000CDCF8C2
:103640000030C3F3022E8EF00704042C28BF04249C
:10365000BEF103034FF0FF3E0EFA04F438BF00231F
:10366000A14399400EFA03F39A43114300F00F026D
:1036700000F160430901043A03F564436244002801
:1036800048BF02F10C03197010BD00004EF60C513A
:10369000CEF200010A684FF6FF031A4060F30A22D7
:1036A00042F0806040F0FD7008607047002804BF61
:1036B000012070472DE9F04143F60808C4F20208E2
:1036C0000446D8F8F8030D4600F00700814207D9F8
:1036D00088F8F853D8F8F80300F00700A84277D12B
:1036E0002068810717D5410705D5D8F8001041F4A7
:1036F000E051C8F80010010705D5D8F8001041F4D2
:103700006041C8F80010D8F80010A26821F0F0015C
:103710001143C8F80010C00740D1D8F8F80300F0F2
:103720000700854207D288F8F853D8F8F80300F06C
:103730000700A8424CD12068410707D5D8F80010EF
:10374000E26821F4E0511143C8F80010000708D5E1
:10375000D8F80000216920F4604040EAC100C8F8B0
:10376000000000F083F8D8F800104AF29442C1F348
:103770000311C0F60002515C40F2180220FA01F178
:1037800040F21400C2F200000068C2F200021160B0
:10379000FFF7FEFE0020BDE8F08100BF6068811EDB
:1037A000022907D258F8081C89015CBF0120BDE836
:1037B000F08111E0012807D158F8081C89035CBF8B
:1037C0000120BDE8F08107E058F8081C890703D400
:1037D0000120BDE8F08100BFD8F8001021F00301FE
:1037E0000843C8F80000FFF7A3FE064641F28837F9
:1037F000D8F80000616800F00C00B0EB810F8CD0AD
:10380000FFF796FE801BB842F2D90320BDE8F08195
:1038100040F21800C2F200000068704740F2180041
:1038200043F60801C2F20000C4F202010068096810
:103830004AF2A442C1F38221C0F60002515CC840A2
:103840007047000040F2180043F60801C2F2000081
:10385000C4F20201006809684AF2A442C1F342318D
:10386000C0F60002515CC8407047000010B543F636
:103870000404C4F202046168C1F3810142F2004011
:10388000C0F2F400DFE801F002040A0210BD00BF3C
:1038900047F64000C0F27D1010BD00BF20682168CF
:1038A0002368490247F64001C0F27D1100F03F0253
:1038B000C3F388105CBF42F20041C0F2F401A1FBE7
:1038C00000010023FCF7FCFC21680222C1F3014146
:1038D00002EB4101B0FBF1F010BD0000002804BF75
:1038E000012070472DE9F04182B00446007843F68C
:1038F0000006C007C4F202060CD0B06800F00C004D
:10390000042840F081803068800303D56068002877
:1039100000F06881207880071BD5B06810F00C0F8C
:1039200009D0B06800F00C00082840F0878070686B
:10393000400200F183803068800703D5E0680128E9
:1039400040F050813068216920F0F80040EAC10061
:1039500030602078000713D4207840072AD4A56966
:10396000002D00F03A81B06800F00C00082840F00B
:10397000A580012D40F00E81012002B0BDE8F0814C
:103980006069002800F082800020C4F247200121F5
:10399000C0F8801EFFF7CCFD054600BF706F8007A2
:1039A000DAD4FFF7C5FD401B0228F7D9032002B087
:1039B000BDE8F081306C5FEAC0080AD400200190B5
:1039C000306C40F080503064306C00F080500190DA
:1039D000019847F20007C4F200073868C00547D4D1
:1039E000386840F480703860FFF7A2FD054600BFDC
:1039F0003868C0053CD4FFF79BFD401B0228F7D96F
:103A0000032002B0BDE8F081B06800F00C00082887
:103A100003D1706840023FF576AF61683068B1F558
:103A2000803F07D0B1F5A02F40F09A8040F480206D
:103A30003060306840F4803030609AE0E068002800
:103A400040F20000C4F247205CD001210160FFF782
:103A50006FFD0546306880073FF574AFFFF768FDDE
:103A6000401B0228F6D9032002B0BDE8F08100BF58
:103A7000A168306F012905D0052955D140F0040017
:103A80003067306F40F00100306756E00020C4F22C
:103A900047200021C0F8801EFFF74AFD054600BF01
:103AA000706F80077FF558AFFFF742FD401B02287B
:103AB000F6D9032002B0BDE8F08100BF0027C4F2B0
:103AC000472700203866FFF733FD022D05460DD14C
:103AD0003068800140F18A80FFF72AFD401B0228F0
:103AE0004FF00300F4D902B0BDE8F08130688001E6
:103AF00073D5FFF71DFD401B02284FF00300F5D9D9
:103B0000F1E700BF00210160FFF712FD054600BF8D
:103B1000306880077FF51DAFFFF70AFD401B0228C4
:103B20004FF00300F4D9DEE720F001003067306F7A
:103B3000002920F0040030677AD0FFF7F9FC054631
:103B400041F28837306F800700F18480FFF7F0FC86
:103B5000401BB842F6D9032002B0BDE8F08100BF97
:103B600020F4803030603068002920F480203060FC
:103B70007AD0FFF7DDFC0546306880033FF5CAAE1A
:103B8000FFF7D6FC401B6428F6D9032002B0BDE83D
:103B9000F08100BF7068E16900F480028A4221D19F
:103BA000216A00F03F028A421CD147F6C071626A66
:103BB0000140B1EB821F15D1A16A4FF6FF73C90313
:103BC000994300F44032A1F580318A420AD1E16A7A
:103BD00000F07060B0EB016F04D1002002B0BDE8CE
:103BE000F08100BF012002B0BDE8F08104F11C05A6
:103BF0002FCD084340EA8210D9034FF6FF7291435C
:103C0000A1F5803140EA0560084370600120386604
:103C1000FFF78EFC044600BF30688001DDD4FFF75B
:103C200087FC001B02284FF00300F5D95BE700BFBB
:103C3000FFF77EFC054641F2883700BF306F8007F2
:103C400008D5FFF775FC401BB8424FF00300F5D9CB
:103C500049E700BFB8F1000F3FF581AE306C20F0AE
:103C6000805030647BE600BFFFF762FC054600BF72
:103C7000306880037FF54EAEFFF75AFC401B642886
:103C80004FF00300F4D92EE7411E0020B0EB116F76
:103C90001CBF012070474EF21002CEF200025160AC
:103CA0004EF62351CEF20001F0230B7007219060F5
:103CB00011607047704700007047000090F83C208A
:103CC000012A4FF0020254D010B580F83D2002685E
:103CD000D2F804E0D2F808C00C682EF07003234339
:103CE00041F2FF74C4F20004A24253600EDC40F2C1
:103CF000FF73C4F200039A4216DCB2F1804F2BD05E
:103D000040F20043C4F2000324E000BF40F2FF335E
:103D1000C4F201039A4213DC41F60003C4F200032B
:103D20009A4219D0002313E040F60003C4F20003C6
:103D30009A4211D040F60043C4F200030AE000BFEB
:103D400044F20003C4F201039A4205D040F200435A
:103D5000C4F201039A4204D149682CF0800319434C
:103D600091600121002280F83D1080F83C20BDE8E0
:103D70001040104670470000002804BF0120704723
:103D800010B5044690F83D0028B9002084F83C00A6
:103D9000204600F01FF8022084F83D002068211D15
:103DA00003F078FB012084F8460084F83E0084F894
:103DB0003F0084F8400084F8410084F8420084F811
:103DC000430084F8440084F8450084F83D00002056
:103DD00010BD00000068B0F1804F18BF704780B57B
:103DE00082B00020019043F64000C4F20200016856
:103DF000002241F0010101600068012100F0010092
:103E0000019001981C20FFF715FC1C2002B0BDE8B2
:103E10008040FFF7FDBB000090F83D1001291CBF5A
:103E200001207047022180F83D10006841F2FF71C7
:103E3000C4F2000188420DDC40F2FF71C4F20001BF
:103E4000884215DCB0F1804F2AD040F20041C4F224
:103E5000000123E040F2FF31C4F20101884213DC8B
:103E600041F60001C4F20001884219D0002113E09C
:103E700040F60001C4F20001884211D040F6004132
:103E8000C4F200010AE000BF44F20001C4F20101E3
:103E9000884205D040F20041C4F20101884206D1B7
:103EA000816801F00701062904BF002070470168FE
:103EB00041F00101016000207047000090F83D10C2
:103EC00001291CBF01207047022180F83D100068C5
:103ED00041F2FF72C168C4F20002904241F0010158
:103EE000C1600DDC40F2FF71C4F20001884215DCB4
:103EF000B0F1804F2AD040F20041C4F2000123E02B
:103F000040F2FF31C4F20101884213DC41F60001A6
:103F1000C4F20001884219D0002113E040F60001EC
:103F2000C4F20001884211D040F60041C4F2000101
:103F30000AE000BF44F20001C4F20101884205D04A
:103F400040F20041C4F20101884206D1816801F0CB
:103F50000701062904BF00207047016841F00101F4
:103F6000016000207047000090F83C20012A4FF0CB
:103F700002026CD080B580F83D20D0F800C04FF62A
:103F80007772DCF8083023EA0202CCF808200B68CC
:103F90004F2B29DC1F2B45DD202B46D0302B44D066
:103FA000402B40F0AF80D1F804E0C968DCF8203045
:103FB000DCF8202022F00102CCF82020DCF81820C8
:103FC00022F0F00242EA011123F00A0242EA0E0254
:103FD000CCF81810CCF82020DCF8081041F047018C
:103FE00021F0300128E000BF6F2B33DDB3F5005F17
:103FF00074D0B3F5805F21D0702B40F08380D1E97D
:1040000001E3C968DCF8082043EA0E0322F47F428A
:1040100043EA01211143CCF80810DCF8081041F004
:10402000770109E00BB1102B6CD1DCF8081021F0FE
:104030007001194341F00701CCF80810002201215A
:1040400080F83D10002180F83C10BDE8804010460B
:10405000704700BF502B21D0602B53D1D1F804E022
:10406000C968DCF8203023F01003CCF82030DCF8ED
:104070001830DCF8202023F4704322F0A00243EA39
:10408000013142EA0E12CCF81810CCF82020DCF8EE
:10409000081041F0670121F01001CDE7D1F804E0EC
:1040A000C968DCF82030DCF8202022F00102CCF8CE
:1040B0002020DCF8182022F0F00242EA011123F05F
:1040C0000A0242EA0E02CCF81810CCF82020DCF8E4
:1040D000081041F0570121F02001ADE7D1E901E3DB
:1040E000C968DCF8082043EA0E0322F47F4243EA61
:1040F00001211143CCF80810DCF8081041F480418C
:104100009AE700BF01229AE77047000010B50168E6
:1041100004460869800744BFC8685FEA807039D4E4
:104120000869400744BFC8685FEA40703ED4086928
:10413000000744BFC8685FEA007045D40869C0063C
:1041400044BFC8685FEAC0604AD40869C0071CBFA2
:10415000C8685FEAC07051D10869000644BFC868EA
:104160005FEA006052D40869400644BFC8685FEA4D
:10417000406053D40869800646BFC8685FEA806023
:1041800010BD6FF0200220460A61BDE81040FFF725
:1041900093BD00BF6FF0020008610120207788699D
:1041A000800743D02046FFF7AFFF45E06FF00400E3
:1041B000086102202077886910F4407F40D02046B3
:1041C000FFF7A2FF42E000BF6FF008000861042083
:1041D0002077C86980073DD02046FFF795FF3FE074
:1041E0006FF01000086108202077C86910F4407F44
:1041F0003AD02046FFF788FF3CE000BF6FF0010097
:104200000861204600F03EF82168A5E76FF08000C5
:1042100008612046FFF74EFD2168A4E76FF04000DB
:104220000861204600F068F82168A3E7204600F006
:1042300025F8204600F024F82168002020776FE759
:10424000204600F01BF8204600F01AF821680020F4
:1042500020776CE7204600F011F8204600F010F8B7
:1042600021680020207769E7204600F007F8204603
:1042700000F006F821680020207766E7704700000C
:10428000704700000068B0F1804F18BF704740F2DF
:104290006810C2F20000016801310160704700003F
:1042A000B0B5044690F83C0001284FF0020008BF6A
:1042B000B0BD012584F83C5084F83D00204603F051
:1042C00083F900284FF0010006D0002184F83D500A
:1042D00084F83C10B0BD00BF2068C16821F04001E7
:1042E000C160C16821F48041C1600020002184F8D0
:1042F0003D5084F83C10B0BD7047000090F83E304F
:10430000202B0BD100294FF0010318BF002A01D147
:104310001846704790F83C30012B03D10223184611
:10432000704700BF81B00123036381628285C2852B
:1043300000222221026480F83E100369016880F89F
:104340003C201BB1CA6842F48072CA604A6942F0DC
:1043500001024A61CA6842F02002CA60026B012A67
:104360002ED1002200920A680092496800910099BB
:10437000016851E8031F026841F0100142E803138D
:1043800013B3016851E8031F026841F0100142E8CD
:104390000313CBB1016851E8031F026841F010011B
:1043A00042E8031383B1016851E8031F026841F03A
:1043B000100142E80313002B4FF00003D8D100E0B6
:1043C000012301B018467047002301B0184670471A
:1043D000006841F20041C4F20101884218BF7047F1
:1043E00040F2C811C2F20001012001F8040B40F2B2
:1043F0008060C2F200001022FFF780BF704700000B
:1044000010B500BF016851E8031F026821F49071E4
:1044100042E80313BBB3016851E8031F026821F4AB
:10442000907142E8031373B3016851E8031F0268F7
:1044300021F4907142E803132BB3016851E8031F84
:10444000026821F4907142E80313002BDAD11AE0DC
:10445000016851E8051F026821F0010142E80513D7
:10446000DBB1016851E8051F026821F0010142E853
:10447000051393B1016851E8051F026821F001019D
:1044800042E805134BB1016851E8051F026821F0AD
:10449000010142E80513002BDAD1016B012924D177
:1044A000016851E8031F026821F0100142E803137C
:1044B000DBB1016851E8031F026821F0100142E8F6
:1044C000031393B1016851E8031F026821F0100142
:1044D00042E803134BB1016851E8031F026821F061
:1044E000100142E80313002BDAD10168496949063B
:1044F00036D500BF016851E8051F026821F0400170
:1045000042E80513DBB1016851E8051F026821F09C
:10451000400142E8051393B1016851E8051F0268A4
:1045200021F0400142E805134BB1016851E8051F35
:10453000026821F0400142E80513002BDAD1816BBB
:1045400071B1044647F2E960C0F60000086508460C
:10455000FEF7ECFE60B1A06B016D8847002010BD36
:1045600000212022C18580F83E200163FFF746FF2D
:10457000002010BD10B5044601F052FC204604F0A6
:10458000E9FE204602F05CFBBDE81040FDF71CBAD6
:10459000B0B582B001680A68CC684B6902F02F059B
:1045A000202D04F0200505D125B102B0BDE8B040B2
:1045B00003F0A4B85FEA027C1EBF03F0010E04F40E
:1045C000907313EB0E0341D1036BD50618D5012B65
:1045D00016D114F0100313D0002201920A68019240
:1045E0004A680192019A496949064BD4818DC28D6E
:1045F000C38D002B18BF914240F0F28102B0B0BDD4
:1046000013062DD514F080032AD090F83D20212ADE
:10461000F4D18268B2F5805F03D10269002A00F00C
:104620006382026A531C036212784A60C28C013AA8
:104630001304C284E2D1C86820F08000C860C86852
:1046400040F04000C86002B0B0BD00BFD30718BF43
:1046500014F4807340F0CE80530700F1D180D6E08F
:104660005206CBD514F04002C8D0CA6822F04002EE
:10467000CA60202180F83D1002B0BDE8B04000F0D3
:104680000DBE00BF826B11684B689DB2002DB5D086
:10469000818D8D42B2D2C385D269B2F5807F00F0A0
:1046A000A180016851E8031F026821F4807142E88B
:1046B0000313DBB1016851E8031F026821F4807124
:1046C00042E8031393B1016851E8031F026821F423
:1046D000807142E803134BB1016851E8031F02687F
:1046E00021F4807142E80313002BDAD1016851E80C
:1046F000051F026821F0010142E80513BBB3016800
:1047000051E8051F026821F0010142E8051373B367
:10471000016851E8051F026821F0010142E8051314
:104720002BB3016851E8051F026821F0010142E83E
:104730000513002BDAD11AE0016851E8051F026861
:1047400021F0400142E80513DBB1016851E8051F83
:10475000026821F0400142E8051393B1016851E875
:10476000051F026821F0400142E805134BB10168C2
:1047700051E8051F026821F0400142E80513002BB3
:10478000DAD1202180F83E1000210163016851E850
:10479000031F026821F0100142E80313DBB1016836
:1047A00051E8031F026821F0100142E8031393B19E
:1047B000016851E8031F026821F0100142E8031369
:1047C0004BB1016851E8031F026821F0100142E873
:1047D0000313002BDAD1816B04460846FEF75EFD19
:1047E000A18D2046C28D891A89B202B0BDE8B040C1
:1047F000FFF7EEBD036C43F001030364530706D5D6
:10480000BEF1000F03D0036C43F00203036493076F
:1048100006D5BEF1000F03D0036C43F0040303641C
:10482000BCF1000F06D55EEA050303D0036C43F02C
:1048300008030364036C002B3FF4E0AE920605D539
:1048400025B1044602F05AFF216820464969026CEE
:1048500001F0400102F00802891800F0B98000BFA1
:10486000016851E8031F026821F4907142E80313C4
:10487000BBB3016851E8031F026821F4907142E85C
:10488000031373B3016851E8031F026821F49071A8
:1048900042E803132BB3016851E8031F026821F4B7
:1048A000907142E80313002BDAD11AE0016851E855
:1048B000051F026821F0010142E80513DBB1016820
:1048C00051E8051F026821F0010142E8051393B188
:1048D000016851E8051F026821F0010142E8051353
:1048E0004BB1016851E8051F026821F0010142E85F
:1048F0000513002BDAD1016B012924D1016851E89D
:10490000031F026821F0100142E80313DBB10168C4
:1049100051E8031F026821F0100142E8031393B12C
:10492000016851E8031F026821F0100142E80313F7
:104930004BB1016851E8031F026821F0100142E801
:104940000313002BDAD1202180F83E1000210163EF
:1049500001684969490640F1C180016851E8051FB5
:10496000026821F0400142E80513DBB1016851E81B
:10497000051F026821F0400142E8051393B1016868
:1049800051E8051F026821F0400142E805134BB1D0
:10499000016851E8051F026821F0400142E8051353
:1049A000002BDAD1816B002900F0988047F2DD629C
:1049B000C0F60002044608460A65FEF7B7FC002868
:1049C0003FF41CAEA06B016D02B0BDE8B0400847DB
:1049D0000446FFF7CFFD0020206402B0B0BD00BF49
:1049E000891A00BF026852E8032F036822F490720C
:1049F00043E80325BDB3026852E8032F036822F49D
:104A0000907243E8032575B3026852E8032F0368E8
:104A100022F4907243E803252DB3026852E8032F75
:104A2000036822F4907243E80325002DDAD11AE0DE
:104A3000026852E8052F036822F0010243E80525C9
:104A4000DDB1026852E8052F036822F0010243E855
:104A5000052595B1026852E8052F036822F001028E
:104A600043E805254DB1026852E8052F036822F09E
:104A7000010243E80525002DDAD1202280F83E20EE
:104A800000220263026852E8032F036822F010023A
:104A900043E80325DDB1026852E8032F036822F0E2
:104AA000100243E8032595B1026852E8032F03681A
:104AB00022F0100243E803254DB1026852E8032FAB
:104AC000036822F0100243E80325002DDAD189B2F1
:104AD00002B0BDE8B040FFF77BBC00BF02B0BDE84C
:104AE000B040FFF747BD00BF026A32F8023B6FF3E8
:104AF0005F234B60026299E5002804BF01207047E4
:104B000010B5044690F83D0028B9002084F83C0018
:104B1000204600F021F8242084F83D002068C16878
:104B200021F40051C160204602F068FE206801694E
:104B300021F490410161416921F02A014161C1687C
:104B400041F40051C16000202021206484F83D1010
:104B500084F83E1010BD00002DE9F04186B00068D9
:104B600044F6FF71C4F2000188424FF00001059144
:104B7000CDE90311CDE9011130DC44F20041C4F26A
:104B80000001884266D044F60001C4F20001884268
:104B900000F0BC8044F60041C4F20001884240F0BD
:104BA0001681002043F630010090C4F202010A6928
:104BB000342442F400220A610A6902F400220092BD
:104BC000009A00900A6842F004020A60096801F045
:104BD0000401009100994FF440612EE045F200017C
:104BE000C4F20001884251D041F20001C4F2010137
:104BF000884200F0B78041F20041C4F201018842CE
:104C000040F0E580002043F630010090C4F202013C
:104C10004A69472442F020024A614A6902F02002B0
:104C20000092009A00900A6842F004020A60096843
:104C300001F0040100910099C02101910221CDE908
:104C40000210032004900820059040F60000C4F2F2
:104C50000200B1E0002043F630010090C4F20201EE
:104C60000A69262442F400320A610A6902F4003219
:104C70000092009A00900A6842F001020A600968F6
:104C800001F00101009100990C2187E0002543F615
:104C900030000095C4F20200016940F6000441F4BE
:104CA000801101610169C4F2020401F480110091D4
:104CB0000099009501684FF0020841F0040101607D
:104CC0000168032701F00401009100990095016833
:104CD000082641F008010160006801A900F0080001
:104CE000009000984FF4805001902046CDE9028555
:104CF00004970596FEF740FB0420CDE90108CDE9B5
:104D00000357059604F58060352455E0002043F6EE
:104D100030010090C4F202010A69272442F4802283
:104D20000A610A6902F480220092009A00900A68DF
:104D300042F002020A60096801F002010091009944
:104D40004FF4406101910221CDE90210032004904B
:104D50000720059040F60000C4F20200A0F5806034
:104D60002AE000BF002043F630010090C4F20201A7
:104D70004A69252442F010024A614A6902F0100291
:104D80000092009A00900A6842F001020A600968E5
:104D900001F00101009100994FF4C06101910221DD
:104DA000CDE90210032004900720059040F6000092
:104DB000C4F20200A0F5006001A9FEF7DDFA20466A
:104DC00000210022FEF736FC2046FEF721FC06B04B
:104DD000BDE8F0812DE9F04381B0044690F83E0033
:104DE00020280DD10E4600294FF0010018BF002ADF
:104DF00002D101B0BDE8F08394F83C00012803D152
:104E0000022001B0BDE8F083012084F83C000020BE
:104E100022211D46206484F83E1020631746FEF7C9
:104E200087FBA785E785A1680746B1F5805F03D1B9
:104E30002069002800F0AC80B0460026002084F8ED
:104E40003C00E08D002800F09B8005F101090DE099
:104E500040684FF000086FF35F2026F8020BE08DEA
:104E60000138E085E08D002800F08A802068016824
:104E700089060DD4B9F1000F18D04DB3FEF758FBD9
:104E8000C01BA84224D8206801688906F6D500BF57
:104E9000B8F1000FDCD0A168B1F5805F14D009B97A
:104EA000216989B1406800F07F000EE00168890641
:104EB000EED4016889065CBF01685FEA8161E7D4CE
:104EC00001688906F2D5E3E7406808F8010BC6E7F8
:104ED000206850E8030F216820F4D07041E80302F5
:104EE000BAB3206850E8030F216820F4D07041E87D
:104EF000030272B3206850E8030F216820F4D070D9
:104F000041E803022AB3206850E8030F216820F427
:104F1000D07041E80302002ADAD11AE0206850E894
:104F2000050F216820F0010041E80502DAB1206890
:104F300050E8050F216820F0010041E8050292B118
:104F4000206850E8050F216820F0010041E80502C3
:104F50004AB1206850E8050F216820F0010041E8BF
:104F60000502002ADAD1202084F83D0084F83E00B2
:104F7000002084F83C00032001B0BDE8F08300BFAE
:104F8000202084F83E00002001B0BDE8F08300BF7F
:104F90004FF0000852E7000090F83E30202B0BD174
:104FA00000294FF0010318BF002A01D118467047AD
:104FB00090F83C30012B03D102231846704700BF04
:104FC00000230363816222218285C285036480F805
:104FD0003E100269016880F83C301AB1C86840F49C
:104FE0008070C860486940F001004861C86840F0BE
:104FF0002000C8601846704710B5044600F022FF34
:10500000204604F0B5F9204601F03EFE2046BDE8FA
:10501000104003F08BBF00002DE9F04381B004463F
:1050200090F83D0020280DD10F4600294FF00100D7
:1050300018BF002A02D101B0BDE8F08394F83C000B
:10504000012803D1022001B0BDE8F083012084F8DB
:105050003C000020206421201D4684F83D001646B7
:10506000FEF766FAA684E684A1680646B1F5805F7D
:1050700003D12069002800F00D81B84600270020E8
:1050800084F83C00E18C2068002900F08F8005F155
:1050900001090CE0B8F1000F28D018F8011B41609D
:1050A000E18C0139E184E18C002900F07F80016806
:1050B0000906EFD4B9F1000F0AD0FDB1FEF738FAB6
:1050C000801BA8421AD8206801680906F6D5E1E7D6
:1050D00001680906DED4016809065CBF01685FEA61
:1050E0000161D7D401680906F2D5D3E737F8021B6E
:1050F0004FF000086FF35F21D1E700BF206850E850
:10510000030F216820F4D07041E80302BAB320688D
:1051100050E8030F216820F4D07041E8030272B315
:10512000206850E8030F216820F4D07041E80302A2
:105130002AB3206850E8030F216820F4D07041E8BA
:105140000302002ADAD11AE0206850E8050F21682E
:1051500020F0010041E80502DAB1206850E8050FAF
:10516000216820F0010041E8050292B1206850E872
:10517000050F216820F0010041E805024AB12068CE
:1051800050E8050F216820F0010041E80502002ADF
:10519000DAD1202084F83D0084F83E00002084F815
:1051A0003C00032001B0BDE8F08300BF0168490660
:1051B0000FD4F5B1691C17D10168490609D40168FB
:1051C00049065CBF01685FEA416102D40168490693
:1051D000F2D5202084F83D00002001B0BDE8F08326
:1051E000206800684006F4D4FEF7A2F9801BA842AC
:1051F000F6D9206850E8030F216820F4D07041E808
:105200000302E2B3206850E8030F216820F4D07055
:1052100041E803029AB3206850E8030F216820F4A4
:10522000D07041E8030252B3206850E8030F2168B0
:1052300020F4D07041E80302002ADAD11FE000BF59
:10524000206850E8050F216820F0010041E80502C0
:10525000002A9ED0206850E8050F216820F0010048
:1052600041E80502002A94D0206850E8050F216823
:1052700020F0010041E80502002A3FF48AAF2068CF
:1052800050E8050F216820F0010041E80502002ADE
:10529000D6D17EE74FF00008F1E60000FCF794BBA2
:1052A00070B582B040F22006C2F20006317840F2BA
:1052B000F0050DF10704C2F200058DF80710214634
:1052C00001224FF0FF336860FFF7A6FE717868682F
:1052D0008DF80710214601224FF0FF33FFF79CFEA7
:1052E000B17868688DF80710214601224FF0FF332E
:1052F000FFF792FEF17868688DF8071021460122C9
:105300004FF0FF33FFF788FE317968688DF807109A
:10531000214601224FF0FF33FFF77EFE4FF47A70F3
:1053200003F026FD686805F118010122FFF734FE3D
:10533000C82003F01DFD9FED040B002085ED040B3C
:10534000287002B070BD00BF000000000000000027
:10535000FEE7000010B5044690F86A00002800F04F
:10536000B98000F0B1FB002818BF10BD40F200105A
:10537000C2F2000090ED000B51EC100B04F06CFE3B
:1053800094ED162A00EE100A9FED6B1A32EE400AD9
:10539000B4EE410AF1EE10FAE0651DDD9FED672ADB
:1053A00030EE020AB4EE410AF1EE10FA14DD30EEEE
:1053B000020AB4EE410AF1EE10FA0DDD30EE020AF7
:1053C000B4EE410AF1EE10FA06DD30EE020AB4EE58
:1053D000410AF1EE10FAE3DC9FED591AB4EE410AEE
:1053E000F1EE10FA1EDA9FED572A00BF30EE020AE6
:1053F000B4EE410AF1EE10FA14DA30EE020AB4EE1D
:10540000410AF1EE10FA0DDA30EE020AB4EE410A6A
:10541000F1EE10FA06DA30EE020AB4EE410AF1EECD
:1054200010FAE3DBDFED480A204684ED180A00F0AD
:10543000F9FE94ED0E1A84ED190AF1EE410A00F01E
:10544000A3F984ED190AFBF739FD94ED101AB4EEB7
:10545000410AF1EE10FA19DA94ED180AFBF72EFD65
:1054600094ED111AB4EE410AF1EE10FA0EDD94ED4E
:10547000191A94ED100AB5EE401AB1EE402AF1EE79
:1054800010FAB8BFB0EE420A84ED190A94ED180A7A
:10549000FBF714FD94ED111AB4EE410AF1EE10FA87
:1054A000BABFB4F868000130002094F84C1082B202
:1054B0008A42A4F8680015D2D4ED190A94ED0E2A98
:1054C000B1EE600AB0EE401AF0EE601ABDE810408E
:1054D000FCF70EBC94F86C0010B100F0F5FAD8B1EE
:1054E00010BD00BF9FED180A94ED0E2AF0EE400AA1
:1054F000B0EE401AF0EE401AFCF7FAFB00204FF431
:10550000807284F86C00606620460021A4F86A204E
:10551000BDE8104000F010BF9FED0B0A94ED0E2A7D
:10552000F0EE400AB0EE401AF0EE401AFCF7E0FB55
:10553000002084F86C0010BD000034430000B4C3A8
:10554000000034C30000B4430000000010B504465E
:1055500090F86600002800F0998000F0B5FA002865
:1055600018BF10BD40F20010C2F2000090ED000B19
:1055700051EC100B04F070FD94ED152A00EE100AAA
:105580009FED5B1A32EE400AB4EE410AF1EE10FADA
:10559000A0651DDD9FED572A30EE020AB4EE410AE8
:1055A000F1EE10FA14DD30EE020AB4EE410AF1EE2B
:1055B00010FA0DDD30EE020AB4EE410AF1EE10FAF7
:1055C00006DD30EE020AB4EE410AF1EE10FAE3DC39
:1055D0009FED491AB4EE410AF1EE10FA1EDA9FED82
:1055E000472A00BF30EE020AB4EE410AF1EE10FA8B
:1055F00014DA30EE020AB4EE410AF1EE10FA0DDAD6
:1056000030EE020AB4EE410AF1EE10FA06DA30EE9C
:10561000020AB4EE410AF1EE10FAE3DBDFED380ADC
:10562000204684ED170A00F0FDFD94ED0E1A84ED7E
:10563000180AF1EE410A00F0A7F894ED171A84ED6C
:10564000180AB0EE410AFBF739FC94ED101AB4EEDB
:10565000410AF1EE10FABABFB4F86400013000203C
:1056600094F8481082B28A42A4F8640016D2D4EDAD
:10567000180A94ED0E2AB1EE600AB0EE401AF0EE70
:10568000601ABDE81040FCF733BB00BF94F8680017
:1056900010B100F019FAD8B110BD00BF9FED180A83
:1056A00094ED0E2AF0EE400AB0EE401AF0EE401AE9
:1056B000FCF71EFB00204FF4807284F8680020661F
:1056C00020460021A4F86620BDE8104000F034BE5A
:1056D0009FED0B0A94ED0E2AF0EE400AB0EE401A50
:1056E000F0EE401AFCF704FB002084F8680010BDBF
:1056F000000034430000B4C3000034C30000B443CE
:105700000000000070B586B0002543F63000059516
:10571000CDE90355CDE901550095C4F202000168B9
:1057200041F2000441F0100101600068C4F202047B
:1057300000F010000090009820464FF480410022B5
:105740004FF48046FDF7EEFE0120CDE9020501A9E8
:10575000204601960495FDF70FFE06B070BD0000CF
:1057600041F20000C4F202004FF480410022FDF734
:10577000D9BE000041F20000C4F202004FF48041A3
:105780000122FDF7CFBE0000B4EE600AF1EE10FA80
:10579000B4EE410AB8BFB0EE600AF1EE10FAC8BF2D
:1057A000B0EE410A7047000040F2C810C2F200009B
:1057B000011D40F28060C2F200001022FEF79EBD83
:1057C00080B586B0002043F630010590CDE9030096
:1057D000CDE901000090C4F202010A6842F0010222
:1057E0000A600A6802F001020092009A00900A68BA
:1057F00042F002020A600A6802F002020092009A75
:1058000000900A6842F004020A600A6802F004028A
:105810000092009A00900A6842F008020A600A6842
:1058200002F008020092009A00900A6842F010020A
:105830000A60096801F01001009100998021CDE90A
:1058400001100120039041F20000C4F2020001A9FE
:10585000FDF792FD06B080BD80B540F2F85044F6E9
:105860000041C2F20000C4F2000100234FF00C0C12
:105870004FF4165280E80E00C0E90333C0E905C3B7
:10588000C361FFF739F9002808BF80BDBDE880403B
:10589000FCF7D0BB80B540F23C6045F20001C2F29B
:1058A0000000C4F2000100234FF00C0C4FF416521C
:1058B00080E80E00C0E90333C0E905C3C361FFF708
:1058C0001BF9002808BF80BDBDE88040FCF7B2BBD3
:1058D00080B540F22C5041F20001C2F20000C4F247
:1058E000010100234FF00C0C4FF4E13280E80E0070
:1058F000C0E90333C0E905C3C361FFF7FDF8002821
:1059000008BF80BDBDE88040FCF794BB80B540F285
:10591000705044F20041C2F20000C4F200010023C2
:105920004FF00C0C4FF4E13280E80E00C0E9033375
:10593000C0E905C3C361FFF7DFF8002808BF80BDD9
:10594000BDE88040FCF776BB80B540F2B45044F629
:105950000001C2F20000C4F2000100234FF00C0C61
:105960004FF4E13280E80E00C0E90333C0E905C31B
:10597000C361FFF7C1F8002808BF80BDBDE88040C3
:10598000FCF758BB80B540F2806041F20041C2F2A2
:105990000000C4F2010100234FF00C0C4FF416522A
:1059A00080E80E00C0E90333C0E905C3C361FFF717
:1059B000A3F8002808BF80BDBDE88040FCF73ABBD3
:1059C000FEE7000070B582B040F2900646F60A523B
:1059D000C2F20006ADF80520F2686B238DF807309F
:1059E0008DF8040082B3054610460C46FEF708FD0C
:1059F000F0684CF6002301A9C3F69A330422FFF79E
:105A00000BFB08B102B070BDF06869460422642344
:105A1000FFF7E0F90028F5D19DF80000A8424FF00B
:105A20000100EFD19DF803106B29EBD19DF8010027
:105A30000A2809D19DF80200002C18BF20700238F6
:105A400018BF012002B070BD012002B070BD00007F
:105A500080B582B08DF802004AF6F330ADF803004D
:105A600040F29000C2F200008DF805106B21C06872
:105A70004CF600238DF806208DF807100DF1020179
:105A8000C3F69A330622FFF7C7FA02B080BD0000C2
:105A900010B540F29004C2F20004607850B1FDF7F6
:105AA00047FD6169401A152804D30320A070002027
:105AB000607020726078A07810BD000040F2900104
:105AC000C2F20001C860704710B540F29004C2F203
:105AD0000004607850B1FDF72BFD6169401A15286C
